:1000000045C0000060C000005EC000005CC0000091
:100010005AC0000058C0000056C0000054C0000084
:1000200052C0000050C000004EC000004CC0000094
:100030004AC0000048C0000046C0000044C00000A4
:1000400042C0000040C000003EC000003CC00000B4
:100050003AC0000038C0000036C0000034C00000C4
:1000600032C0000030C000002EC000002CC00000D4
:100070002AC0000028C0000026C0000024C00000E4
:1000800022C0000020C000001EC0000011241FBEBE
:10009000CFEFD0E1DEBFCDBF11E0A0E0B1E0E8EAF4
:1000A000F3E000E00BBF02C007900D92A230B10751
:1000B000D9F721E0A2E0B1E001C01D92A131B20761
:1000C000E1F778D06FC19CCFD098D1980895CF92A6
:1000D000DF92EF92FF921F93CF93DF93EB0149B32F
:1000E00021E030E0082E02C0220F331F0A94E2F70D
:1000F00050E024233523A90102C0559547958A95E0
:10010000E2F741110FC08881813041F51882E7D0B4
:1001100060930201709303018093040190930501A1
:1001200010E021C04130E1F4188111111BC0D7D07B
:10013000C0900201D0900301E0900401F09005010D
:10014000DC01CB018C199D09AE09BF094597A105BA
:10015000B10548F081E0888311E005C010E003C0DC
:1001600010E001C010E0812FDF91CF911F91FF902F
:10017000EF90DF90CF90089561E071E080E0A7CF2D
:10018000089560E071E081E0A2CF089584B38F63A9
:1001900084BB81B3836081BB089595B3907C95BB8C
:1001A00095B3892B85BB08959198909A0895919A5B
:1001B0009098089589DFEADF80E025D080E026D09E
:1001C000DBDF882341F025D0811103C081E01ED000
:1001D00002C080E01BD080910F01882319F081308C
:1001E00031F009C080E191E017D0DEDF04C080E18A
:1001F00091E04ED0DCDF8FE99FE00197F1F700C07E
:10020000000076D0DDCF80931001089580930F0118
:10021000089580910F010895FC018081813099F04B
:1002200028F08230E9F0833041F1089581E2B5DFB2
:1002300068E873E180E090E06FD0882341F181E0CD
:1002400080931001089581E1A8DF60ED77E080E000
:1002500090E062D08823D9F082E080931001089565
:100260008CE09BDF68E873E180E090E055D0882364
:1002700071F083E08093100108958AE08EDF60EDD5
:1002800077E080E090E048D081111092100108954D
:10029000CF93DF93EC0175DF882351F0809110013B
:1002A0008F5F843019F41092100102C08093100106
:1002B0008881813049F028F0823049F0833051F054
:1002C0000BC081E26ADF08C081E167DF05C08CE016
:1002D00064DF02C08AE061DFDF91CF910895609111
:1002E0000B0170910C0180910D0190910E01089508
:1002F00080910B0190910C01A0910D01B0910E0124
:100300000196A11DB11D80930B0190930C01A09348
:100310000D01B0930E0108958F929F92AF92BF92FC
:10032000CF92DF92EF92FF920F931F93C0900B0139
:10033000D0900C01E0900D01F0900E0120910A0187
:1003400021110CC091E090930A01C0920601D09255
:100350000701E0920801F092090118C0009106011E
:1003600010910701209108013091090146015701C0
:10037000801A910AA20AB30A681579058A059B05B5
:1003800020F410920A0121E001C020E0822F1F9189
:100390000F91FF90EF90DF90CF90BF90AF909F9024
:0803A0008F900895F894FFCF3F
:0203A800010151
:00000001FF
